{"contracts/BaseQuestMerkle.sol":{"BaseQuestMerkle":{"abi":[{"inputs":[],"stateMutability":"nonpayable","type":"constructor"},{"anonymous":false,"inputs":[{"indexed":true,"internalType":"address","name":"user","type":"address"},{"indexed":true,"internalType":"uint256","name":"questId","type":"uint256"}],"name":"Claimed","type":"event"},{"anonymous":false,"inputs":[{"indexed":false,"internalType":"bool","name":"status","type":"bool"}],"name":"Paused","type":"event"},{"anonymous":false,"inputs":[{"indexed":true,"internalType":"uint256","name":"id","type":"uint256"}],"name":"QuestCreated","type":"event"},{"inputs":[{"internalType":"uint256","name":"questId","type":"uint256"},{"internalType":"bytes32[]","name":"proof","type":"bytes32[]"}],"name":"claim","outputs":[],"stateMutability":"nonpayable","type":"function"},{"inputs":[],"name":"claimPoints","outputs":[],"stateMutability":"nonpayable","type":"function"},{"inputs":[{"internalType":"uint256","name":"","type":"uint256"},{"internalType":"address","name":"","type":"address"}],"name":"claimed","outputs":[{"internalType":"bool","name":"","type":"bool"}],"stateMutability":"view","type":"function"},{"inputs":[{"internalType":"uint64","name":"reward","type":"uint64"},{"internalType":"uint32","name":"startTime","type":"uint32"},{"internalType":"uint32","name":"endTime","type":"uint32"},{"internalType":"bytes32","name":"merkleRoot","type":"bytes32"}],"name":"createQuest","outputs":[],"stateMutability":"nonpayable","type":"function"},{"inputs":[{"internalType":"uint256","name":"id","type":"uint256"}],"name":"getQuest","outputs":[{"internalType":"uint64","name":"","type":"uint64"},{"internalType":"uint32","name":"","type":"uint32"},{"internalType":"uint32","name":"","type":"uint32"},{"internalType":"bytes32","name":"","type":"bytes32"},{"internalType":"bool","name":"","type":"bool"}],"stateMutability":"view","type":"function"},{"inputs":[],"name":"owner","outputs":[{"internalType":"address","name":"","type":"address"}],"stateMutability":"view","type":"function"},{"inputs":[],"name":"paused","outputs":[{"internalType":"bool","name":"","type":"bool"}],"stateMutability":"view","type":"function"},{"inputs":[{"internalType":"address","name":"","type":"address"}],"name":"points","outputs":[{"internalType":"uint128","name":"","type":"uint128"}],"stateMutability":"view","type":"function"},{"inputs":[],"name":"questCount","outputs":[{"internalType":"uint256","name":"","type":"uint256"}],"stateMutability":"view","type":"function"},{"inputs":[{"internalType":"uint256","name":"","type":"uint256"}],"name":"quests","outputs":[{"internalType":"uint64","name":"reward","type":"uint64"},{"internalType":"uint32","name":"startTime","type":"uint32"},{"internalType":"uint32","name":"endTime","type":"uint32"},{"internalType":"bytes32","name":"merkleRoot","type":"bytes32"},{"internalType":"bool","name":"active","type":"bool"}],"stateMutability":"view","type":"function"},{"inputs":[{"internalType":"bool","name":"_paused","type":"bool"}],"name":"setPaused","outputs":[],"stateMutability":"nonpayable","type":"function"},{"inputs":[{"internalType":"uint256","name":"id","type":"uint256"},{"internalType":"bool","name":"active","type":"bool"}],"name":"setQuestActive","outputs":[],"stateMutability":"nonpayable","type":"function"}],"evm":{"bytecode":{"linkReferences":{},"object":"608060405234801561001057600080fd5b50600080546001600160a01b03191633179055610b49806100326000396000f3fe608060405234801561001057600080fd5b50600436106100b45760003560e01c80633970ab43116100715780633970ab431461018057806349f86f341461019757806350924f581461025a5780635c975abb1461026d5780638da5cb5b14610281578063e085f980146102ac57600080fd5b806304d092c7146100b9578063120aa877146100c357806316c38b3c146101065780631c329337146101195780632f52ebb71461012c578063358b81661461013f575b600080fd5b6100c1610302565b005b6100f16100d1366004610938565b600360209081526000928352604080842090915290825290205460ff1681565b60405190151581526020015b60405180910390f35b6100c1610114366004610974565b610379565b6100c1610127366004610996565b6103fb565b6100c161013a3660046109b9565b61044a565b61016861014d366004610a38565b6004602052600090815260409020546001600160801b031681565b6040516001600160801b0390911681526020016100fd565b61018960015481565b6040519081526020016100fd565b61021b6101a5366004610a53565b600090815260026020818152604092839020835160a081018552815467ffffffffffffffff811680835263ffffffff600160401b83048116958401869052600160601b909204909116958201869052600183015460608301819052929094015460ff161515608090910181905292949193929091565b6040805167ffffffffffffffff96909616865263ffffffff9485166020870152929093169184019190915260608301521515608082015260a0016100fd565b6100c1610268366004610a80565b61071b565b6000546100f190600160a01b900460ff1681565b600054610294906001600160a01b031681565b6040516001600160a01b0390911681526020016100fd565b61021b6102ba366004610a53565b600260208190526000918252604090912080546001820154919092015467ffffffffffffffff83169263ffffffff600160401b8204811693600160601b909204169160ff1685565b336000908152600460205260409020546001600160801b0316806103595760405162461bcd60e51b81526020600482015260096024820152684e4f5f504f494e545360b81b60448201526064015b60405180910390fd5b5033600090815260046020526040902080546001600160801b0319169055565b6000546001600160a01b031633146103a35760405162461bcd60e51b815260040161035090610ada565b60008054821515600160a01b0260ff60a01b199091161790556040517f0e2fb031ee032dc02d8011dc50b816eb450cf856abd8261680dac74f72165bd2906103f090831515815260200190565b60405180910390a150565b6000546001600160a01b031633146104255760405162461bcd60e51b815260040161035090610ada565b6000918252600260208190526040909220909101805460ff1916911515919091179055565b600054600160a01b900460ff161561048d5760405162461bcd60e51b815260206004820152600660248201526514105554d15160d21b6044820152606401610350565b600083815260026020818152604092839020835160a081018552815467ffffffffffffffff8116825263ffffffff600160401b8204811694830194909452600160601b9004909216938201939093526001830154606082015291015460ff1615156080820181905261052c5760405162461bcd60e51b8152602060048201526008602482015267494e41435449564560c01b6044820152606401610350565b806020015163ffffffff164210156105745760405162461bcd60e51b815260206004820152600b60248201526a1393d517d4d5105495115160aa1b6044820152606401610350565b806040015163ffffffff164211156105b65760405162461bcd60e51b8152602060048201526005602482015264115391115160da1b6044820152606401610350565b600084815260036020908152604080832033845290915290205460ff161561060a5760405162461bcd60e51b8152602060048201526007602482015266414c524541445960c81b6044820152606401610350565b6040516bffffffffffffffffffffffff193360601b166020820152600090603401604051602081830303815290604052805190602001209050610653848484606001518461087a565b61068f5760405162461bcd60e51b815260206004820152600d60248201526c24a72b20a624a22fa82927a7a360991b6044820152606401610350565b6000858152600360209081526040808320338085529083528184208054600160ff199091161790558551600490935281842080546001600160801b0319811667ffffffffffffffff9095166001600160801b039182160116939093179092555187927fd8138f8a3f377c5259ca548e70e4c2de94f129f5a11036a15b69513cba2b426a91a35050505050565b6000546001600160a01b031633146107455760405162461bcd60e51b815260040161035090610ada565b8263ffffffff168263ffffffff161161078f5760405162461bcd60e51b815260206004820152600c60248201526b494e56414c49445f54494d4560a01b6044820152606401610350565b6040805160a08101825267ffffffffffffffff808716825263ffffffff808716602080850191825287831685870190815260608601888152600160808801818152815460009081526002958690528a812099518a54975195518916600160601b0263ffffffff60601b1996909916600160401b026bffffffffffffffffffffffff19909816991698909817959095179290921694909417865592518584015590519301805493151560ff1990941693909317909255905491517ff2376f43586d93a15b606c89747962a511dee47a8afacda035909ddd4460b1089190a2505060018054810190555050565b600081815b8581101561091057600087878381811061089b5761089b610afd565b9050602002013590508083106108da57604080516020810183905290810184905260600160405160208183030381529060405280519060200120610905565b6040805160208101859052908101829052606001604051602081830303815290604052805190602001205b92505060010161087f565b50909214949350505050565b80356001600160a01b038116811461093357600080fd5b919050565b6000806040838503121561094b57600080fd5b8235915061095b6020840161091c565b90509250929050565b8035801515811461093357600080fd5b60006020828403121561098657600080fd5b61098f82610964565b9392505050565b600080604083850312156109a957600080fd5b8235915061095b60208401610964565b6000806000604084860312156109ce57600080fd5b83359250602084013567ffffffffffffffff808211156109ed57600080fd5b818601915086601f830112610a0157600080fd5b813581811115610a1057600080fd5b8760208260051b8501011115610a2557600080fd5b6020830194508093505050509250925092565b600060208284031215610a4a57600080fd5b61098f8261091c565b600060208284031215610a6557600080fd5b5035919050565b803563ffffffff8116811461093357600080fd5b60008060008060808587031215610a9657600080fd5b843567ffffffffffffffff81168114610aae57600080fd5b9350610abc60208601610a6c565b9250610aca60408601610a6c565b9396929550929360600135925050565b6020808252600990820152682727aa2fa7aba722a960b91b604082015260600190565b634e487b7160e01b600052603260045260246000fdfea2646970667358221220b201f3a007ea7dd735a3842a4e9b38ecdf13e8bf3c1990c605d777755001ccff64736f6c63430008180033","opcodes":"PUSH1 0x80 PUSH1 0x40 MSTORE CALLVALUE DUP1 ISZERO PUSH2 0x10 JUMPI PUSH1 0x0 DUP1 REVERT JUMPDEST POP PUSH1 0x0 DUP1 SLOAD PUSH1 0x1 PUSH1 0x1 PUSH1 0xA0 SHL SUB NOT AND CALLER OR SWAP1 SSTORE PUSH2 0xB49 DUP1 PUSH2 0x32 PUSH1 0x0 CODECOPY PUSH1 0x0 RETURN INVALID PUSH1 0x80 PUSH1 0x40 MSTORE CALLVALUE DUP1 ISZERO PUSH2 0x10 JUMPI PUSH1 0x0 DUP1 REVERT JUMPDEST POP PUSH1 0x4 CALLDATASIZE LT PUSH2 0xB4 JUMPI PUSH1 0x0 CALLDATALOAD PUSH1 0xE0 SHR DUP1 PUSH4 0x3970AB43 GT PUSH2 0x71 JUMPI DUP1 PUSH4 0x3970AB43 EQ PUSH2 0x180 JUMPI DUP1 PUSH4 0x49F86F34 EQ PUSH2 0x197 JUMPI DUP1 PUSH4 0x50924F58 EQ PUSH2 0x25A JUMPI DUP1 PUSH4 0x5C975ABB EQ PUSH2 0x26D JUMPI DUP1 PUSH4 0x8DA5CB5B EQ PUSH2 0x281 JUMPI DUP1 PUSH4 0xE085F980 EQ PUSH2 0x2AC JUMPI PUSH1 0x0 DUP1 REVERT JUMPDEST DUP1 PUSH4 0x4D092C7 EQ PUSH2 0xB9 JUMPI DUP1 PUSH4 0x120AA877 EQ PUSH2 0xC3 JUMPI DUP1 PUSH4 0x16C38B3C EQ PUSH2 0x106 JUMPI DUP1 PUSH4 0x1C329337 EQ PUSH2 0x119 JUMPI DUP1 PUSH4 0x2F52EBB7 EQ PUSH2 0x12C JUMPI DUP1 PUSH4 0x358B8166 EQ PUSH2 0x13F JUMPI JUMPDEST PUSH1 0x0 DUP1 REVERT JUMPDEST PUSH2 0xC1 PUSH2 0x302 JUMP JUMPDEST STOP JUMPDEST PUSH2 0xF1 PUSH2 0xD1 CALLDATASIZE PUSH1 0x4 PUSH2 0x938 JUMP JUMPDEST PUSH1 0x3 PUSH1 0x20 SWAP1 DUP2 MSTORE PUSH1 0x0 SWAP3 DUP4 MSTORE PUSH1 0x40 DUP1 DUP5 KECCAK256 SWAP1 SWAP2 MSTORE SWAP1 DUP3 MSTORE SWAP1 KECCAK256 SLOAD PUSH1 0xFF AND DUP2 JUMP JUMPDEST PUSH1 0x40 MLOAD SWAP1 ISZERO ISZERO DUP2 MSTORE PUSH1 0x20 ADD JUMPDEST PUSH1 0x40 MLOAD DUP1 SWAP2 SUB SWAP1 RETURN JUMPDEST PUSH2 0xC1 PUSH2 0x114 CALLDATASIZE PUSH1 0x4 PUSH2 0x974 JUMP JUMPDEST PUSH2 0x379 JUMP JUMPDEST PUSH2 0xC1 PUSH2 0x127 CALLDATASIZE PUSH1 0x4 PUSH2 0x996 JUMP JUMPDEST PUSH2 0x3FB JUMP JUMPDEST PUSH2 0xC1 PUSH2 0x13A CALLDATASIZE PUSH1 0x4 PUSH2 0x9B9 JUMP JUMPDEST PUSH2 0x44A JUMP JUMPDEST PUSH2 0x168 PUSH2 0x14D CALLDATASIZE PUSH1 0x4 PUSH2 0xA38 JUMP JUMPDEST PUSH1 0x4 PUSH1 0x20 MSTORE PUSH1 0x0 SWAP1 DUP2 MSTORE PUSH1 0x40 SWAP1 KECCAK256 SLOAD PUSH1 0x1 PUSH1 0x1 PUSH1 0x80 SHL SUB AND DUP2 JUMP JUMPDEST PUSH1 0x40 MLOAD PUSH1 0x1 PUSH1 0x1 PUSH1 0x80 SHL SUB SWAP1 SWAP2 AND DUP2 MSTORE PUSH1 0x20 ADD PUSH2 0xFD JUMP JUMPDEST PUSH2 0x189 PUSH1 0x1 SLOAD DUP2 JUMP JUMPDEST PUSH1 0x40 MLOAD SWAP1 DUP2 MSTORE PUSH1 0x20 ADD PUSH2 0xFD JUMP JUMPDEST PUSH2 0x21B PUSH2 0x1A5 CALLDATASIZE PUSH1 0x4 PUSH2 0xA53 JUMP JUMPDEST PUSH1 0x0 SWAP1 DUP2 MSTORE PUSH1 0x2 PUSH1 0x20 DUP2 DUP2 MSTORE PUSH1 0x40 SWAP3 DUP4 SWAP1 KECCAK256 DUP4 MLOAD PUSH1 0xA0 DUP2 ADD DUP6 MSTORE DUP2 SLOAD PUSH8 0xFFFFFFFFFFFFFFFF DUP2 AND DUP1 DUP4 MSTORE PUSH4 0xFFFFFFFF PUSH1 0x1 PUSH1 0x40 SHL DUP4 DIV DUP2 AND SWAP6 DUP5 ADD DUP7 SWAP1 MSTORE PUSH1 0x1 PUSH1 0x60 SHL SWAP1 SWAP3 DIV SWAP1 SWAP2 AND SWAP6 DUP3 ADD DUP7 SWAP1 MSTORE PUSH1 0x1 DUP4 ADD SLOAD PUSH1 0x60 DUP4 ADD DUP2 SWAP1 MSTORE SWAP3 SWAP1 SWAP5 ADD SLOAD PUSH1 0xFF AND ISZERO ISZERO PUSH1 0x80 SWAP1 SWAP2 ADD DUP2 SWAP1 MSTORE SWAP3 SWAP5 SWAP2 SWAP4 SWAP3 SWAP1 SWAP2 JUMP JUMPDEST PUSH1 0x40 DUP1 MLOAD PUSH8 0xFFFFFFFFFFFFFFFF SWAP7 SWAP1 SWAP7 AND DUP7 MSTORE PUSH4 0xFFFFFFFF SWAP5 DUP6 AND PUSH1 0x20 DUP8 ADD MSTORE SWAP3 SWAP1 SWAP4 AND SWAP2 DUP5 ADD SWAP2 SWAP1 SWAP2 MSTORE PUSH1 0x60 DUP4 ADD MSTORE ISZERO ISZERO PUSH1 0x80 DUP3 ADD MSTORE PUSH1 0xA0 ADD PUSH2 0xFD JUMP JUMPDEST PUSH2 0xC1 PUSH2 0x268 CALLDATASIZE PUSH1 0x4 PUSH2 0xA80 JUMP JUMPDEST PUSH2 0x71B JUMP JUMPDEST PUSH1 0x0 SLOAD PUSH2 0xF1 SWAP1 PUSH1 0x1 PUSH1 0xA0 SHL SWAP1 DIV PUSH1 0xFF AND DUP2 JUMP JUMPDEST PUSH1 0x0 SLOAD PUSH2 0x294 SWAP1 PUSH1 0x1 PUSH1 0x1 PUSH1 0xA0 SHL SUB AND DUP2 JUMP JUMPDEST PUSH1 0x40 MLOAD PUSH1 0x1 PUSH1 0x1 PUSH1 0xA0 SHL SUB SWAP1 SWAP2 AND DUP2 MSTORE PUSH1 0x20 ADD PUSH2 0xFD JUMP JUMPDEST PUSH2 0x21B PUSH2 0x2BA CALLDATASIZE PUSH1 0x4 PUSH2 0xA53 JUMP JUMPDEST PUSH1 0x2 PUSH1 0x20 DUP2 SWAP1 MSTORE PUSH1 0x0 SWAP2 DUP3 MSTORE PUSH1 0x40 SWAP1 SWAP2 KECCAK256 DUP1 SLOAD PUSH1 0x1 DUP3 ADD SLOAD SWAP2 SWAP1 SWAP3 ADD SLOAD PUSH8 0xFFFFFFFFFFFFFFFF DUP4 AND SWAP3 PUSH4 0xFFFFFFFF PUSH1 0x1 PUSH1 0x40 SHL DUP3 DIV DUP2 AND SWAP4 PUSH1 0x1 PUSH1 0x60 SHL SWAP1 SWAP3 DIV AND SWAP2 PUSH1 0xFF AND DUP6 JUMP JUMPDEST CALLER PUSH1 0x0 SWAP1 DUP2 MSTORE PUSH1 0x4 PUSH1 0x20 MSTORE PUSH1 0x40 SWAP1 KECCAK256 SLOAD PUSH1 0x1 PUSH1 0x1 PUSH1 0x80 SHL SUB AND DUP1 PUSH2 0x359 JUMPI PUSH1 0x40 MLOAD PUSH3 0x461BCD PUSH1 0xE5 SHL DUP2 MSTORE PUSH1 0x20 PUSH1 0x4 DUP3 ADD MSTORE PUSH1 0x9 PUSH1 0x24 DUP3 ADD MSTORE PUSH9 0x4E4F5F504F494E5453 PUSH1 0xB8 SHL PUSH1 0x44 DUP3 ADD MSTORE PUSH1 0x64 ADD JUMPDEST PUSH1 0x40 MLOAD DUP1 SWAP2 SUB SWAP1 REVERT JUMPDEST POP CALLER PUSH1 0x0 SWAP1 DUP2 MSTORE PUSH1 0x4 PUSH1 0x20 MSTORE PUSH1 0x40 SWAP1 KECCAK256 DUP1 SLOAD PUSH1 0x1 PUSH1 0x1 PUSH1 0x80 SHL SUB NOT AND SWAP1 SSTORE JUMP JUMPDEST PUSH1 0x0 SLOAD PUSH1 0x1 PUSH1 0x1 PUSH1 0xA0 SHL SUB AND CALLER EQ PUSH2 0x3A3 JUMPI PUSH1 0x40 MLOAD PUSH3 0x461BCD PUSH1 0xE5 SHL DUP2 MSTORE PUSH1 0x4 ADD PUSH2 0x350 SWAP1 PUSH2 0xADA JUMP JUMPDEST PUSH1 0x0 DUP1 SLOAD DUP3 ISZERO ISZERO PUSH1 0x1 PUSH1 0xA0 SHL MUL PUSH1 0xFF PUSH1 0xA0 SHL NOT SWAP1 SWAP2 AND OR SWAP1 SSTORE PUSH1 0x40 MLOAD PUSH32 0xE2FB031EE032DC02D8011DC50B816EB450CF856ABD8261680DAC74F72165BD2 SWAP1 PUSH2 0x3F0 SWAP1 DUP4 ISZERO ISZERO DUP2 MSTORE PUSH1 0x20 ADD SWAP1 JUMP JUMPDEST PUSH1 0x40 MLOAD DUP1 SWAP2 SUB SWAP1 LOG1 POP JUMP JUMPDEST PUSH1 0x0 SLOAD PUSH1 0x1 PUSH1 0x1 PUSH1 0xA0 SHL SUB AND CALLER EQ PUSH2 0x425 JUMPI PUSH1 0x40 MLOAD PUSH3 0x461BCD PUSH1 0xE5 SHL DUP2 MSTORE PUSH1 0x4 ADD PUSH2 0x350 SWAP1 PUSH2 0xADA JUMP JUMPDEST PUSH1 0x0 SWAP2 DUP3 MSTORE PUSH1 0x2 PUSH1 0x20 DUP2 SWAP1 MSTORE PUSH1 0x40 SWAP1 SWAP3 KECCAK256 SWAP1 SWAP2 ADD DUP1 SLOAD PUSH1 0xFF NOT AND SWAP2 ISZERO ISZERO SWAP2 SWAP1 SWAP2 OR SWAP1 SSTORE JUMP JUMPDEST PUSH1 0x0 SLOAD PUSH1 0x1 PUSH1 0xA0 SHL SWAP1 DIV PUSH1 0xFF AND ISZERO PUSH2 0x48D JUMPI PUSH1 0x40 MLOAD PUSH3 0x461BCD PUSH1 0xE5 SHL DUP2 MSTORE PUSH1 0x20 PUSH1 0x4 DUP3 ADD MSTORE PUSH1 0x6 PUSH1 0x24 DUP3 ADD MSTORE PUSH6 0x14105554D151 PUSH1 0xD2 SHL PUSH1 0x44 DUP3 ADD MSTORE PUSH1 0x64 ADD PUSH2 0x350 JUMP JUMPDEST PUSH1 0x0 DUP4 DUP2 MSTORE PUSH1 0x2 PUSH1 0x20 DUP2 DUP2 MSTORE PUSH1 0x40 SWAP3 DUP4 SWAP1 KECCAK256 DUP4 MLOAD PUSH1 0xA0 DUP2 ADD DUP6 MSTORE DUP2 SLOAD PUSH8 0xFFFFFFFFFFFFFFFF DUP2 AND DUP3 MSTORE PUSH4 0xFFFFFFFF PUSH1 0x1 PUSH1 0x40 SHL DUP3 DIV DUP2 AND SWAP5 DUP4 ADD SWAP5 SWAP1 SWAP5 MSTORE PUSH1 0x1 PUSH1 0x60 SHL SWAP1 DIV SWAP1 SWAP3 AND SWAP4 DUP3 ADD SWAP4 SWAP1 SWAP4 MSTORE PUSH1 0x1 DUP4 ADD SLOAD PUSH1 0x60 DUP3 ADD MSTORE SWAP2 ADD SLOAD PUSH1 0xFF AND ISZERO ISZERO PUSH1 0x80 DUP3 ADD DUP2 SWAP1 MSTORE PUSH2 0x52C JUMPI PUSH1 0x40 MLOAD PUSH3 0x461BCD PUSH1 0xE5 SHL DUP2 MSTORE PUSH1 0x20 PUSH1 0x4 DUP3 ADD MSTORE PUSH1 0x8 PUSH1 0x24 DUP3 ADD MSTORE PUSH8 0x494E414354495645 PUSH1 0xC0 SHL PUSH1 0x44 DUP3 ADD MSTORE PUSH1 0x64 ADD PUSH2 0x350 JUMP JUMPDEST DUP1 PUSH1 0x20 ADD MLOAD PUSH4 0xFFFFFFFF AND TIMESTAMP LT ISZERO PUSH2 0x574 JUMPI PUSH1 0x40 MLOAD PUSH3 0x461BCD PUSH1 0xE5 SHL DUP2 MSTORE PUSH1 0x20 PUSH1 0x4 DUP3 ADD MSTORE PUSH1 0xB PUSH1 0x24 DUP3 ADD MSTORE PUSH11 0x1393D517D4D51054951151 PUSH1 0xAA SHL PUSH1 0x44 DUP3 ADD MSTORE PUSH1 0x64 ADD PUSH2 0x350 JUMP JUMPDEST DUP1 PUSH1 0x40 ADD MLOAD PUSH4 0xFFFFFFFF AND TIMESTAMP GT ISZERO PUSH2 0x5B6 JUMPI PUSH1 0x40 MLOAD PUSH3 0x461BCD PUSH1 0xE5 SHL DUP2 MSTORE PUSH1 0x20 PUSH1 0x4 DUP3 ADD MSTORE PUSH1 0x5 PUSH1 0x24 DUP3 ADD MSTORE PUSH5 0x1153911151 PUSH1 0xDA SHL PUSH1 0x44 DUP3 ADD MSTORE PUSH1 0x64 ADD PUSH2 0x350 JUMP JUMPDEST PUSH1 0x0 DUP5 DUP2 MSTORE PUSH1 0x3 PUSH1 0x20 SWAP1 DUP2 MSTORE PUSH1 0x40 DUP1 DUP4 KECCAK256 CALLER DUP5 MSTORE SWAP1 SWAP2 MSTORE SWAP1 KECCAK256 SLOAD PUSH1 0xFF AND ISZERO PUSH2 0x60A JUMPI PUSH1 0x40 MLOAD PUSH3 0x461BCD PUSH1 0xE5 SHL DUP2 MSTORE PUSH1 0x20 PUSH1 0x4 DUP3 ADD MSTORE PUSH1 0x7 PUSH1 0x24 DUP3 ADD MSTORE PUSH7 0x414C5245414459 PUSH1 0xC8 SHL PUSH1 0x44 DUP3 ADD MSTORE PUSH1 0x64 ADD PUSH2 0x350 JUMP JUMPDEST PUSH1 0x40 MLOAD PUSH12 0xFFFFFFFFFFFFFFFFFFFFFFFF NOT CALLER PUSH1 0x60 SHL AND PUSH1 0x20 DUP3 ADD MSTORE PUSH1 0x0 SWAP1 PUSH1 0x34 ADD PUSH1 0x40 MLOAD PUSH1 0x20 DUP2 DUP4 SUB SUB DUP2 MSTORE SWAP1 PUSH1 0x40 MSTORE DUP1 MLOAD SWAP1 PUSH1 0x20 ADD KECCAK256 SWAP1 POP PUSH2 0x653 DUP5 DUP5 DUP5 PUSH1 0x60 ADD MLOAD DUP5 PUSH2 0x87A JUMP JUMPDEST PUSH2 0x68F JUMPI PUSH1 0x40 MLOAD PUSH3 0x461BCD PUSH1 0xE5 SHL DUP2 MSTORE PUSH1 0x20 PUSH1 0x4 DUP3 ADD MSTORE PUSH1 0xD PUSH1 0x24 DUP3 ADD MSTORE PUSH13 0x24A72B20A624A22FA82927A7A3 PUSH1 0x99 SHL PUSH1 0x44 DUP3 ADD MSTORE PUSH1 0x64 ADD PUSH2 0x350 JUMP JUMPDEST PUSH1 0x0 DUP6 DUP2 MSTORE PUSH1 0x3 PUSH1 0x20 SWAP1 DUP2 MSTORE PUSH1 0x40 DUP1 DUP4 KECCAK256 CALLER DUP1 DUP6 MSTORE SWAP1 DUP4 MSTORE DUP2 DUP5 KECCAK256 DUP1 SLOAD PUSH1 0x1 PUSH1 0xFF NOT SWAP1 SWAP2 AND OR SWAP1 SSTORE DUP6 MLOAD PUSH1 0x4 SWAP1 SWAP4 MSTORE DUP2 DUP5 KECCAK256 DUP1 SLOAD PUSH1 0x1 PUSH1 0x1 PUSH1 0x80 SHL SUB NOT DUP2 AND PUSH8 0xFFFFFFFFFFFFFFFF SWAP1 SWAP6 AND PUSH1 0x1 PUSH1 0x1 PUSH1 0x80 SHL SUB SWAP2 DUP3 AND ADD AND SWAP4 SWAP1 SWAP4 OR SWAP1 SWAP3 SSTORE MLOAD DUP8 SWAP3 PUSH32 0xD8138F8A3F377C5259CA548E70E4C2DE94F129F5A11036A15B69513CBA2B426A SWAP2 LOG3 POP POP POP POP POP JUMP JUMPDEST PUSH1 0x0 SLOAD PUSH1 0x1 PUSH1 0x1 PUSH1 0xA0 SHL SUB AND CALLER EQ PUSH2 0x745 JUMPI PUSH1 0x40 MLOAD PUSH3 0x461BCD PUSH1 0xE5 SHL DUP2 MSTORE PUSH1 0x4 ADD PUSH2 0x350 SWAP1 PUSH2 0xADA JUMP JUMPDEST DUP3 PUSH4 0xFFFFFFFF AND DUP3 PUSH4 0xFFFFFFFF AND GT PUSH2 0x78F JUMPI PUSH1 0x40 MLOAD PUSH3 0x461BCD PUSH1 0xE5 SHL DUP2 MSTORE PUSH1 0x20 PUSH1 0x4 DUP3 ADD MSTORE PUSH1 0xC PUSH1 0x24 DUP3 ADD MSTORE PUSH12 0x494E56414C49445F54494D45 PUSH1 0xA0 SHL PUSH1 0x44 DUP3 ADD MSTORE PUSH1 0x64 ADD PUSH2 0x350 JUMP JUMPDEST PUSH1 0x40 DUP1 MLOAD PUSH1 0xA0 DUP2 ADD DUP3 MSTORE PUSH8 0xFFFFFFFFFFFFFFFF DUP1 DUP8 AND DUP3 MSTORE PUSH4 0xFFFFFFFF DUP1 DUP8 AND PUSH1 0x20 DUP1 DUP6 ADD SWAP2 DUP3 MSTORE DUP8 DUP4 AND DUP6 DUP8 ADD SWAP1 DUP2 MSTORE PUSH1 0x60 DUP7 ADD DUP9 DUP2 MSTORE PUSH1 0x1 PUSH1 0x80 DUP9 ADD DUP2 DUP2 MSTORE DUP2 SLOAD PUSH1 0x0 SWAP1 DUP2 MSTORE PUSH1 0x2 SWAP6 DUP7 SWAP1 MSTORE DUP11 DUP2 KECCAK256 SWAP10 MLOAD DUP11 SLOAD SWAP8 MLOAD SWAP6 MLOAD DUP10 AND PUSH1 0x1 PUSH1 0x60 SHL MUL PUSH4 0xFFFFFFFF PUSH1 0x60 SHL NOT SWAP7 SWAP1 SWAP10 AND PUSH1 0x1 PUSH1 0x40 SHL MUL PUSH12 0xFFFFFFFFFFFFFFFFFFFFFFFF NOT SWAP1 SWAP9 AND SWAP10 AND SWAP9 SWAP1 SWAP9 OR SWAP6 SWAP1 SWAP6 OR SWAP3 SWAP1 SWAP3 AND SWAP5 SWAP1 SWAP5 OR DUP7 SSTORE SWAP3 MLOAD DUP6 DUP5 ADD SSTORE SWAP1 MLOAD SWAP4 ADD DUP1 SLOAD SWAP4 ISZERO ISZERO PUSH1 0xFF NOT SWAP1 SWAP5 AND SWAP4 SWAP1 SWAP4 OR SWAP1 SWAP3 SSTORE SWAP1 SLOAD SWAP2 MLOAD PUSH32 0xF2376F43586D93A15B606C89747962A511DEE47A8AFACDA035909DDD4460B108 SWAP2 SWAP1 LOG2 POP POP PUSH1 0x1 DUP1 SLOAD DUP2 ADD SWAP1 SSTORE POP POP JUMP JUMPDEST PUSH1 0x0 DUP2 DUP2 JUMPDEST DUP6 DUP2 LT ISZERO PUSH2 0x910 JUMPI PUSH1 0x0 DUP8 DUP8 DUP4 DUP2 DUP2 LT PUSH2 0x89B JUMPI PUSH2 0x89B PUSH2 0xAFD JUMP JUMPDEST SWAP1 POP PUSH1 0x20 MUL ADD CALLDATALOAD SWAP1 POP DUP1 DUP4 LT PUSH2 0x8DA JUMPI PUSH1 0x40 DUP1 MLOAD PUSH1 0x20 DUP2 ADD DUP4 SWAP1 MSTORE SWAP1 DUP2 ADD DUP5 SWAP1 MSTORE PUSH1 0x60 ADD PUSH1 0x40 MLOAD PUSH1 0x20 DUP2 DUP4 SUB SUB DUP2 MSTORE SWAP1 PUSH1 0x40 MSTORE DUP1 MLOAD SWAP1 PUSH1 0x20 ADD KECCAK256 PUSH2 0x905 JUMP JUMPDEST PUSH1 0x40 DUP1 MLOAD PUSH1 0x20 DUP2 ADD DUP6 SWAP1 MSTORE SWAP1 DUP2 ADD DUP3 SWAP1 MSTORE PUSH1 0x60 ADD PUSH1 0x40 MLOAD PUSH1 0x20 DUP2 DUP4 SUB SUB DUP2 MSTORE SWAP1 PUSH1 0x40 MSTORE DUP1 MLOAD SWAP1 PUSH1 0x20 ADD KECCAK256 JUMPDEST SWAP3 POP POP PUSH1 0x1 ADD PUSH2 0x87F JUMP JUMPDEST POP SWAP1 SWAP3 EQ SWAP5 SWAP4 POP POP POP POP JUMP JUMPDEST DUP1 CALLDATALOAD PUSH1 0x1 PUSH1 0x1 PUSH1 0xA0 SHL SUB DUP2 AND DUP2 EQ PUSH2 0x933 JUMPI PUSH1 0x0 DUP1 REVERT JUMPDEST SWAP2 SWAP1 POP JUMP JUMPDEST PUSH1 0x0 DUP1 PUSH1 0x40 DUP4 DUP6 SUB SLT ISZERO PUSH2 0x94B JUMPI PUSH1 0x0 DUP1 REVERT JUMPDEST DUP3 CALLDATALOAD SWAP2 POP PUSH2 0x95B PUSH1 0x20 DUP5 ADD PUSH2 0x91C JUMP JUMPDEST SWAP1 POP SWAP3 POP SWAP3 SWAP1 POP JUMP JUMPDEST DUP1 CALLDATALOAD DUP1 ISZERO ISZERO DUP2 EQ PUSH2 0x933 JUMPI PUSH1 0x0 DUP1 REVERT JUMPDEST PUSH1 0x0 PUSH1 0x20 DUP3 DUP5 SUB SLT ISZERO PUSH2 0x986 JUMPI PUSH1 0x0 DUP1 REVERT JUMPDEST PUSH2 0x98F DUP3 PUSH2 0x964 JUMP JUMPDEST SWAP4 SWAP3 POP POP POP JUMP JUMPDEST PUSH1 0x0 DUP1 PUSH1 0x40 DUP4 DUP6 SUB SLT ISZERO PUSH2 0x9A9 JUMPI PUSH1 0x0 DUP1 REVERT JUMPDEST DUP3 CALLDATALOAD SWAP2 POP PUSH2 0x95B PUSH1 0x20 DUP5 ADD PUSH2 0x964 JUMP JUMPDEST PUSH1 0x0 DUP1 PUSH1 0x0 PUSH1 0x40 DUP5 DUP7 SUB SLT ISZERO PUSH2 0x9CE JUMPI PUSH1 0x0 DUP1 REVERT JUMPDEST DUP4 CALLDATALOAD SWAP3 POP PUSH1 0x20 DUP5 ADD CALLDATALOAD PUSH8 0xFFFFFFFFFFFFFFFF DUP1 DUP3 GT ISZERO PUSH2 0x9ED JUMPI PUSH1 0x0 DUP1 REVERT JUMPDEST DUP2 DUP7 ADD SWAP2 POP DUP7 PUSH1 0x1F DUP4 ADD SLT PUSH2 0xA01 JUMPI PUSH1 0x0 DUP1 REVERT JUMPDEST DUP2 CALLDATALOAD DUP2 DUP2 GT ISZERO PUSH2 0xA10 JUMPI PUSH1 0x0 DUP1 REVERT JUMPDEST DUP8 PUSH1 0x20 DUP3 PUSH1 0x5 SHL DUP6 ADD ADD GT ISZERO PUSH2 0xA25 JUMPI PUSH1 0x0 DUP1 REVERT JUMPDEST PUSH1 0x20 DUP4 ADD SWAP5 POP DUP1 SWAP4 POP POP POP POP SWAP3 POP SWAP3 POP SWAP3 JUMP JUMPDEST PUSH1 0x0 PUSH1 0x20 DUP3 DUP5 SUB SLT ISZERO PUSH2 0xA4A JUMPI PUSH1 0x0 DUP1 REVERT JUMPDEST PUSH2 0x98F DUP3 PUSH2 0x91C JUMP JUMPDEST PUSH1 0x0 PUSH1 0x20 DUP3 DUP5 SUB SLT ISZERO PUSH2 0xA65 JUMPI PUSH1 0x0 DUP1 REVERT JUMPDEST POP CALLDATALOAD SWAP2 SWAP1 POP JUMP JUMPDEST DUP1 CALLDATALOAD PUSH4 0xFFFFFFFF DUP2 AND DUP2 EQ PUSH2 0x933 JUMPI PUSH1 0x0 DUP1 REVERT JUMPDEST PUSH1 0x0 DUP1 PUSH1 0x0 DUP1 PUSH1 0x80 DUP6 DUP8 SUB SLT ISZERO PUSH2 0xA96 JUMPI PUSH1 0x0 DUP1 REVERT JUMPDEST DUP5 CALLDATALOAD PUSH8 0xFFFFFFFFFFFFFFFF DUP2 AND DUP2 EQ PUSH2 0xAAE JUMPI PUSH1 0x0 DUP1 REVERT JUMPDEST SWAP4 POP PUSH2 0xABC PUSH1 0x20 DUP7 ADD PUSH2 0xA6C JUMP JUMPDEST SWAP3 POP PUSH2 0xACA PUSH1 0x40 DUP7 ADD PUSH2 0xA6C JUMP JUMPDEST SWAP4 SWAP7 SWAP3 SWAP6 POP SWAP3 SWAP4 PUSH1 0x60 ADD CALLDATALOAD SWAP3 POP POP JUMP JUMPDEST PUSH1 0x20 DUP1 DUP3 MSTORE PUSH1 0x9 SWAP1 DUP3 ADD MSTORE PUSH9 0x2727AA2FA7ABA722A9 PUSH1 0xB9 SHL PUSH1 0x40 DUP3 ADD MSTORE PUSH1 0x60 ADD SWAP1 JUMP JUMPDEST PUSH4 0x4E487B71 PUSH1 0xE0 SHL PUSH1 0x0 MSTORE PUSH1 0x32 PUSH1 0x4 MSTORE PUSH1 0x24 PUSH1 0x0 REVERT INVALID LOG2 PUSH5 0x6970667358 0x22 SLT KECCAK256 0xB2 ADD RETURN LOG0 SMOD 0xEA PUSH30 0xD735A3842A4E9B38ECDF13E8BF3C1990C605D777755001CCFF64736F6C63 NUMBER STOP ADDMOD XOR STOP CALLER "},"methodIdentifiers":{"claim(uint256,bytes32[])":"2f52ebb7","claimPoints()":"04d092c7","claimed(uint256,address)":"120aa877","createQuest(uint64,uint32,uint32,bytes32)":"50924f58","getQuest(uint256)":"49f86f34","owner()":"8da5cb5b","paused()":"5c975abb","points(address)":"358b8166","questCount()":"3970ab43","quests(uint256)":"e085f980","setPaused(bool)":"16c38b3c","setQuestActive(uint256,bool)":"1c329337"}}}}}