{
  "_format": "hh-sol-artifact-1",
  "contractName": "BaseQuestMerkle",
  "sourceName": "contracts/BaseQuestMerkle.sol",
  "abi": [
    {
      "inputs": [],
      "stateMutability": "nonpayable",
      "type": "constructor"
    },
    {
      "anonymous": false,
      "inputs": [
        {
          "indexed": true,
          "internalType": "address",
          "name": "user",
          "type": "address"
        },
        {
          "indexed": true,
          "internalType": "uint256",
          "name": "questId",
          "type": "uint256"
        }
      ],
      "name": "Claimed",
      "type": "event"
    },
    {
      "anonymous": false,
      "inputs": [
        {
          "indexed": false,
          "internalType": "bool",
          "name": "status",
          "type": "bool"
        }
      ],
      "name": "Paused",
      "type": "event"
    },
    {
      "anonymous": false,
      "inputs": [
        {
          "indexed": true,
          "internalType": "uint256",
          "name": "id",
          "type": "uint256"
        }
      ],
      "name": "QuestCreated",
      "type": "event"
    },
    {
      "inputs": [
        {
          "internalType": "uint256",
          "name": "questId",
          "type": "uint256"
        },
        {
          "internalType": "bytes32[]",
          "name": "proof",
          "type": "bytes32[]"
        }
      ],
      "name": "claim",
      "outputs": [],
      "stateMutability": "nonpayable",
      "type": "function"
    },
    {
      "inputs": [],
      "name": "claimPoints",
      "outputs": [],
      "stateMutability": "nonpayable",
      "type": "function"
    },
    {
      "inputs": [
        {
          "internalType": "uint256",
          "name": "",
          "type": "uint256"
        },
        {
          "internalType": "address",
          "name": "",
          "type": "address"
        }
      ],
      "name": "claimed",
      "outputs": [
        {
          "internalType": "bool",
          "name": "",
          "type": "bool"
        }
      ],
      "stateMutability": "view",
      "type": "function"
    },
    {
      "inputs": [
        {
          "internalType": "uint64",
          "name": "reward",
          "type": "uint64"
        },
        {
          "internalType": "uint32",
          "name": "startTime",
          "type": "uint32"
        },
        {
          "internalType": "uint32",
          "name": "endTime",
          "type": "uint32"
        },
        {
          "internalType": "bytes32",
          "name": "merkleRoot",
          "type": "bytes32"
        }
      ],
      "name": "createQuest",
      "outputs": [],
      "stateMutability": "nonpayable",
      "type": "function"
    },
    {
      "inputs": [
        {
          "internalType": "uint256",
          "name": "id",
          "type": "uint256"
        }
      ],
      "name": "getQuest",
      "outputs": [
        {
          "internalType": "uint64",
          "name": "",
          "type": "uint64"
        },
        {
          "internalType": "uint32",
          "name": "",
          "type": "uint32"
        },
        {
          "internalType": "uint32",
          "name": "",
          "type": "uint32"
        },
        {
          "internalType": "bytes32",
          "name": "",
          "type": "bytes32"
        },
        {
          "internalType": "bool",
          "name": "",
          "type": "bool"
        }
      ],
      "stateMutability": "view",
      "type": "function"
    },
    {
      "inputs": [],
      "name": "owner",
      "outputs": [
        {
          "internalType": "address",
          "name": "",
          "type": "address"
        }
      ],
      "stateMutability": "view",
      "type": "function"
    },
    {
      "inputs": [],
      "name": "paused",
      "outputs": [
        {
          "internalType": "bool",
          "name": "",
          "type": "bool"
        }
      ],
      "stateMutability": "view",
      "type": "function"
    },
    {
      "inputs": [
        {
          "internalType": "address",
          "name": "",
          "type": "address"
        }
      ],
      "name": "points",
      "outputs": [
        {
          "internalType": "uint128",
          "name": "",
          "type": "uint128"
        }
      ],
      "stateMutability": "view",
      "type": "function"
    },
    {
      "inputs": [],
      "name": "questCount",
      "outputs": [
        {
          "internalType": "uint256",
          "name": "",
          "type": "uint256"
        }
      ],
      "stateMutability": "view",
      "type": "function"
    },
    {
      "inputs": [
        {
          "internalType": "uint256",
          "name": "",
          "type": "uint256"
        }
      ],
      "name": "quests",
      "outputs": [
        {
          "internalType": "uint64",
          "name": "reward",
          "type": "uint64"
        },
        {
          "internalType": "uint32",
          "name": "startTime",
          "type": "uint32"
        },
        {
          "internalType": "uint32",
          "name": "endTime",
          "type": "uint32"
        },
        {
          "internalType": "bytes32",
          "name": "merkleRoot",
          "type": "bytes32"
        },
        {
          "internalType": "bool",
          "name": "active",
          "type": "bool"
        }
      ],
      "stateMutability": "view",
      "type": "function"
    },
    {
      "inputs": [
        {
          "internalType": "bool",
          "name": "_paused",
          "type": "bool"
        }
      ],
      "name": "setPaused",
      "outputs": [],
      "stateMutability": "nonpayable",
      "type": "function"
    },
    {
      "inputs": [
        {
          "internalType": "uint256",
          "name": "id",
          "type": "uint256"
        },
        {
          "internalType": "bool",
          "name": "active",
          "type": "bool"
        }
      ],
      "name": "setQuestActive",
      "outputs": [],
      "stateMutability": "nonpayable",
      "type": "function"
    }
  ],
  "bytecode": "0x608060405234801561001057600080fd5b50600080546001600160a01b03191633179055610b49806100326000396000f3fe608060405234801561001057600080fd5b50600436106100b45760003560e01c80633970ab43116100715780633970ab431461018057806349f86f341461019757806350924f581461025a5780635c975abb1461026d5780638da5cb5b14610281578063e085f980146102ac57600080fd5b806304d092c7146100b9578063120aa877146100c357806316c38b3c146101065780631c329337146101195780632f52ebb71461012c578063358b81661461013f575b600080fd5b6100c1610302565b005b6100f16100d1366004610938565b600360209081526000928352604080842090915290825290205460ff1681565b60405190151581526020015b60405180910390f35b6100c1610114366004610974565b610379565b6100c1610127366004610996565b6103fb565b6100c161013a3660046109b9565b61044a565b61016861014d366004610a38565b6004602052600090815260409020546001600160801b031681565b6040516001600160801b0390911681526020016100fd565b61018960015481565b6040519081526020016100fd565b61021b6101a5366004610a53565b600090815260026020818152604092839020835160a081018552815467ffffffffffffffff811680835263ffffffff600160401b83048116958401869052600160601b909204909116958201869052600183015460608301819052929094015460ff161515608090910181905292949193929091565b6040805167ffffffffffffffff96909616865263ffffffff9485166020870152929093169184019190915260608301521515608082015260a0016100fd565b6100c1610268366004610a80565b61071b565b6000546100f190600160a01b900460ff1681565b600054610294906001600160a01b031681565b6040516001600160a01b0390911681526020016100fd565b61021b6102ba366004610a53565b600260208190526000918252604090912080546001820154919092015467ffffffffffffffff83169263ffffffff600160401b8204811693600160601b909204169160ff1685565b336000908152600460205260409020546001600160801b0316806103595760405162461bcd60e51b81526020600482015260096024820152684e4f5f504f494e545360b81b60448201526064015b60405180910390fd5b5033600090815260046020526040902080546001600160801b0319169055565b6000546001600160a01b031633146103a35760405162461bcd60e51b815260040161035090610ada565b60008054821515600160a01b0260ff60a01b199091161790556040517f0e2fb031ee032dc02d8011dc50b816eb450cf856abd8261680dac74f72165bd2906103f090831515815260200190565b60405180910390a150565b6000546001600160a01b031633146104255760405162461bcd60e51b815260040161035090610ada565b6000918252600260208190526040909220909101805460ff1916911515919091179055565b600054600160a01b900460ff161561048d5760405162461bcd60e51b815260206004820152600660248201526514105554d15160d21b6044820152606401610350565b600083815260026020818152604092839020835160a081018552815467ffffffffffffffff8116825263ffffffff600160401b8204811694830194909452600160601b9004909216938201939093526001830154606082015291015460ff1615156080820181905261052c5760405162461bcd60e51b8152602060048201526008602482015267494e41435449564560c01b6044820152606401610350565b806020015163ffffffff164210156105745760405162461bcd60e51b815260206004820152600b60248201526a1393d517d4d5105495115160aa1b6044820152606401610350565b806040015163ffffffff164211156105b65760405162461bcd60e51b8152602060048201526005602482015264115391115160da1b6044820152606401610350565b600084815260036020908152604080832033845290915290205460ff161561060a5760405162461bcd60e51b8152602060048201526007602482015266414c524541445960c81b6044820152606401610350565b6040516bffffffffffffffffffffffff193360601b166020820152600090603401604051602081830303815290604052805190602001209050610653848484606001518461087a565b61068f5760405162461bcd60e51b815260206004820152600d60248201526c24a72b20a624a22fa82927a7a360991b6044820152606401610350565b6000858152600360209081526040808320338085529083528184208054600160ff199091161790558551600490935281842080546001600160801b0319811667ffffffffffffffff9095166001600160801b039182160116939093179092555187927fd8138f8a3f377c5259ca548e70e4c2de94f129f5a11036a15b69513cba2b426a91a35050505050565b6000546001600160a01b031633146107455760405162461bcd60e51b815260040161035090610ada565b8263ffffffff168263ffffffff161161078f5760405162461bcd60e51b815260206004820152600c60248201526b494e56414c49445f54494d4560a01b6044820152606401610350565b6040805160a08101825267ffffffffffffffff808716825263ffffffff808716602080850191825287831685870190815260608601888152600160808801818152815460009081526002958690528a812099518a54975195518916600160601b0263ffffffff60601b1996909916600160401b026bffffffffffffffffffffffff19909816991698909817959095179290921694909417865592518584015590519301805493151560ff1990941693909317909255905491517ff2376f43586d93a15b606c89747962a511dee47a8afacda035909ddd4460b1089190a2505060018054810190555050565b600081815b8581101561091057600087878381811061089b5761089b610afd565b9050602002013590508083106108da57604080516020810183905290810184905260600160405160208183030381529060405280519060200120610905565b6040805160208101859052908101829052606001604051602081830303815290604052805190602001205b92505060010161087f565b50909214949350505050565b80356001600160a01b038116811461093357600080fd5b919050565b6000806040838503121561094b57600080fd5b8235915061095b6020840161091c565b90509250929050565b8035801515811461093357600080fd5b60006020828403121561098657600080fd5b61098f82610964565b9392505050565b600080604083850312156109a957600080fd5b8235915061095b60208401610964565b6000806000604084860312156109ce57600080fd5b83359250602084013567ffffffffffffffff808211156109ed57600080fd5b818601915086601f830112610a0157600080fd5b813581811115610a1057600080fd5b8760208260051b8501011115610a2557600080fd5b6020830194508093505050509250925092565b600060208284031215610a4a57600080fd5b61098f8261091c565b600060208284031215610a6557600080fd5b5035919050565b803563ffffffff8116811461093357600080fd5b60008060008060808587031215610a9657600080fd5b843567ffffffffffffffff81168114610aae57600080fd5b9350610abc60208601610a6c565b9250610aca60408601610a6c565b9396929550929360600135925050565b6020808252600990820152682727aa2fa7aba722a960b91b604082015260600190565b634e487b7160e01b600052603260045260246000fdfea2646970667358221220b201f3a007ea7dd735a3842a4e9b38ecdf13e8bf3c1990c605d777755001ccff64736f6c63430008180033",
  "linkReferences": {},
  "deployedLinkReferences": {}
}